:020000040800F2
:10000000003000204D0C00088514000887140008FB
:10001000891400088B1400088D14000800000000EB
:100020000000000000000000000000008F14000825
:1000300091140008000000009314000895140008B3
:100040009D0C00089D0C00089D0C00089D0C0008EC
:100050009D0C00089D0C00089D0C00089D0C0008DC
:100060009D0C00089D0C00089D0C00089D140008C4
:100070009D0C00089D0C00089D0C00089D0C0008BC
:100080009D0C00089D0C0008AD1400089D0C000894
:100090009D0C00089D0C00089D0C00089D0C00089C
:1000A0009D0C0008C51400089D0C00089D0C00085C
:1000B0009D0C00089D0C000800000000D5140008ED
:1000C000E514000800000000000000009D0C00087E
:1000D000000000009D0C0008F51400089D0C0008AD
:1000E000051500089D0C000800000000000000003D
:1000F0000000000000000000000000000000000000
:1001000000000000000000000000000000000000EF
:1001100000000000000000009D0C00089D0C00087D
:1001200000000000000000000000000000000000CF
:1001300000000000000000000000000000000000BF
:100140009D0C00089D0C0008000000009D0C00089C
:100150009D0C00089D0C00089D0C00089D0C0008DB
:100160009D0C00089D0C000800000000000000002D
:10017000000000000000000000000000000000007F
:08018000000000009D0C0008C6
:1001900010B5054C237833B9044B13B10448AFF3C1
:1001A00000800123237010BDE0010020000000004A
:1001B000C486000808B5034B1BB103490348AFF3DD
:1001C000008008BD00000000E4010020C486000893
:1001D00081F0004102E000BF83F0004330B54FEAF8
:1001E00041044FEA430594EA050F08BF90EA020F65
:1001F0001FBF54EA000C55EA020C7FEA645C7FEAF8
:10020000655C00F0E2804FEA5454D4EB5555B8BF1A
:100210006D420CDD2C4480EA020281EA030382EA8B
:10022000000083EA010180EA020281EA0303362D1D
:1002300088BF30BD11F0004F4FEA01314FF4801CF0
:100240004CEA113102D0404261EB410113F0004F02
:100250004FEA03334CEA133302D0524263EB4303B9
:1002600094EA050F00F0A780A4F10104D5F1200E57
:100270000DDB02FA0EFC22FA05F2801841F10001B2
:1002800003FA0EF2801843FA05F359410EE0A5F186
:1002900020050EF1200E012A03FA0EFC28BF4CF0B7
:1002A000020C43FA05F3C01851EBE37101F000456D
:1002B00007D54FF0000EDCF1000C7EEB00006EEB7A
:1002C0000101B1F5801F1BD3B1F5001F0CD3490804
:1002D0005FEA30004FEA3C0C04F101044FEA44525B
:1002E00012F5800F80F09A80BCF1004F08BF5FEAE2
:1002F000500C50F1000041EB045141EA050130BDC2
:100300005FEA4C0C404141EB010111F4801FA4F164
:100310000104E9D191F0000F04BF01460020B1FAB9
:1003200081F308BF2033A3F10B03B3F120020CDAF1
:100330000C3208DD02F1140CC2F10C0201FA0CF0CF
:1003400021FA02F10CE002F11402D8BFC2F1200C34
:1003500001FA02F120FA0CFCDCBF41EA0C019040EA
:10036000E41AA2BF01EB0451294330BD6FEA040433
:100370001F3C1CDA0C340EDC04F11404C4F120021E
:1003800020FA04F001FA02F340EA030021FA04F330
:1003900045EA030130BDC4F10C04C4F1200220FA87
:1003A00002F001FA04F340EA0300294630BD21FAC5
:1003B00004F0294630BD94F0000F83F4801306BF8B
:1003C00081F480110134013D4EE77FEA645C18BF7F
:1003D0007FEA655C29D094EA050F08BF90EA020F16
:1003E00005D054EA000C04BF1946104630BD91EA0E
:1003F000030F1EBF0021002030BD5FEA545C05D111
:100400004000494128BF41F0004130BD14F580044F
:100410003CBF01F5801130BD01F0004545F0FE41C3
:1004200041F470014FF0000030BD7FEA645C1ABFF8
:10043000194610467FEA655C1CBF0B46024650EA2F
:10044000013406BF52EA033591EA030F41F400215B
:1004500030BD00BF90F0000F04BF0021704730B5E1
:100460004FF4806404F132044FF000054FF00001B6
:1004700050E700BF90F0000F04BF0021704730B577
:100480004FF4806404F1320410F0004548BF40424C
:100490004FF000013EE700BF42004FEAE2014FEAA1
:1004A00031014FEA02701FBF12F07F4393F07F4F7C
:1004B00081F06051704732F07F4208BF704793F07F
:1004C0007F4F04BF41F40021704730B54FF4607492
:1004D00001F0004521F000411CE700BF50EA010295
:1004E00008BF704730B54FF000050AE050EA01023E
:1004F00008BF704730B511F0004502D5404261EBAE
:1005000041014FF4806404F132045FEA915C3FF4EE
:10051000D8AE4FF003025FEADC0C18BF03325FEA8B
:10052000DC0C18BF033202EBDC02C2F1200300FA3C
:1005300003FC20FA02F001FA03FE40EA0E0021FA61
:1005400002F11444BDE600BF70B54FF0FF0C4CF44F
:10055000E06C1CEA11541DBF1CEA135594EA0C0F01
:1005600095EA0C0F00F0DEF82C4481EA030621EA3C
:100570004C5123EA4C5350EA013518BF52EA033577
:1005800041F4801143F4801338D0A0FB02CE4FF029
:100590000005E1FB02E506F00042E0FB03E54FF059
:1005A0000006E1FB03569CF0000F18BF4EF0010E51
:1005B000A4F1FF04B6F5007F64F5407404D25FEA4D
:1005C0004E0E6D4146EB060642EAC62141EA555100
:1005D0004FEAC52040EA5E504FEACE2EB4F1FD0C42
:1005E00088BFBCF5E06F1ED8BEF1004F08BF5FEAC0
:1005F000500E50F1000041EB045170BD06F0004672
:1006000046EA010140EA020081EA0301B4EB5C041E
:10061000C2BFD4EB0C0541EA045170BD41F4801116
:100620004FF0000E013C00F3AB8014F1360FDEBF3B
:10063000002001F0004170BDC4F10004203C35DA17
:100640000C341BDC04F11404C4F1200500FA05F39A
:1006500020FA04F001FA05F240EA020001F000423B
:1006600021F0004110EBD37021FA04F642EB0601B1
:100670005EEA430E08BF20EAD37070BDC4F10C04DB
:10068000C4F1200500FA04F320FA05F001FA04F29F
:1006900040EA020001F0004110EBD37041F100018B
:1006A0005EEA430E08BF20EAD37070BDC4F1200596
:1006B00000FA05F24EEA020E20FA04F301FA05F2FE
:1006C00043EA020321FA04F001F0004121FA04F2A6
:1006D00020EA020000EBD3705EEA430E08BF20EA76
:1006E000D37070BD94F0000F0FD101F000464000B0
:1006F00041EB010111F4801F08BF013CF7D041EA32
:10070000060195F0000F18BF704703F00046520035
:1007100043EB030313F4801F08BF013DF7D043EA06
:100720000603704794EA0C0F0CEA135518BF95EABC
:100730000C0F0CD050EA410618BF52EA4306D1D143
:1007400081EA030101F000414FF0000070BD50EA62
:10075000410606BF1046194652EA430619D094EAEC
:100760000C0F02D150EA013613D195EA0C0F05D1D6
:1007700052EA03361CBF104619460AD181EA03012A
:1007800001F0004141F0FE4141F470014FF00000E2
:1007900070BD41F0FE4141F4780170BD70B54FF07D
:1007A000FF0C4CF4E06C1CEA11541DBF1CEA1355FD
:1007B00094EA0C0F95EA0C0F00F0A7F8A4EB0504DF
:1007C00081EA030E52EA03354FEA013100F08880D6
:1007D0004FEA03334FF0805545EA131343EA12639F
:1007E0004FEA022245EA111545EA10654FEA002654
:1007F0000EF000419D4208BF964244F1FD0404F50D
:10080000407402D25B084FEA3202B61A65EB030568
:100810005B084FEA32024FF480104FF4002CB6EB25
:10082000020E75EB030E22BFB61A754640EA0C00A5
:100830005B084FEA3202B6EB020E75EB030E22BFE5
:10084000B61A754640EA5C005B084FEA3202B6EB26
:10085000020E75EB030E22BFB61A754640EA9C00E5
:100860005B084FEA3202B6EB020E75EB030E22BFB5
:10087000B61A754640EADC0055EA060E18D04FEA73
:10088000051545EA16754FEA06164FEAC30343EA13
:1008900052734FEAC2025FEA1C1CC0D111F4801FE0
:1008A0000BD141EA00014FF000004FF0004CB6E7D9
:1008B00011F4801F04BF01430020B4F1FD0C88BF78
:1008C000BCF5E06F3FF6AFAEB5EB030C04BFB6EB83
:1008D000020C5FEA500C50F1000041EB045170BD76
:1008E0000EF0004E4EEA113114EB5C04C2BFD4EBA3
:1008F0000C0541EA045170BD41F480114FF0000E27
:10090000013C90E645EA060E8DE60CEA135594EAA2
:100910000C0F08BF95EA0C0F3FF43BAF94EA0C0FA5
:100920000AD150EA01347FF434AF95EA0C0F7FF41A
:1009300025AF104619462CE795EA0C0F06D152EA6E
:1009400003353FF4FDAE1046194622E750EA410652
:1009500018BF52EA43067FF4C5AE50EA41047FF463
:100960000DAF52EA43057FF4EBAE12E74FEA4102C6
:10097000B2F1E04324BFB3F5001CDCF1FE5C0DD9FD
:1009800001F0004C4FEAC0024CEA5070B2F1004F47
:1009900040EB830008BF20F00100704711F0804F4A
:1009A00021D113F13872BCBF01F00040704741F40F
:1009B00080114FEA5252C2F11802C2F1200C10FA13
:1009C0000CF320FA02F018BF40F001004FEAC123F7
:1009D0004FEAD32303FA0CFC40EA0C0023FA02F39B
:1009E0004FEA4303CCE77FEA625307D150EA013371
:1009F0001EBF4FF0FE4040F44000704701F0004041
:100A000040F0FE4040F40000704700BF034613F87A
:100A1000012B002AFBD1181A013870470000000092
:100A200001F0FF01102A2BDB10F0070F08D010F89F
:100A3000013B013A8B422DD010F0070F42B3F6D1A3
:100A4000F0B441EA012141EA014122F007047FF0BC
:100A500000070023F0E80256083C85EA010586EA13
:100A6000010685FA47F5A3FA87F586FA47F6A5FA4F
:100A700087F68EB9EED1F0BC01F0FF0102F007025B
:100A800032B110F8013B013A83EA010313B1F8D106
:100A90000020704701387047002D06BF35460338E7
:100AA000073815F0010F07D1013015F4807F02BF20
:100AB000013015F4C03F0130F0BC0138704700BF71
:100AC0004FF0FF3C06E000BF4FF0010C02E000BF1A
:100AD0004FF0010C4DF804CD4FEA410C7FEA6C5CFD
:100AE0004FEA430C18BF7FEA6C5C1BD001B050EAA0
:100AF000410C0CBF52EA430C91EA030F02BF90EA8B
:100B0000020F0020704710F1000F91EA030F58BF49
:100B1000994208BF90422CBFD8176FEAE37040F0AB
:100B2000010070474FEA410C7FEA6C5C02D150EA49
:100B3000013C07D14FEA430C7FEA6C5CD6D152EA04
:100B4000033CD3D05DF8040B704700BF84461046C9
:100B500062468C461946634600E000BF01B5FFF7C8
:100B6000B7FF002848BF10F1000F01BD4DF808ED98
:100B7000FFF7F4FF0CBF012000205DF808FB00BF69
:100B80004DF808EDFFF7EAFF34BF012000205DF8C3
:100B900008FB00BF4DF808EDFFF7E0FF94BF012010
:100BA00000205DF808FB00BF4DF808EDFFF7CEFF11
:100BB00094BF012000205DF808FB00BF4DF808ED50
:100BC000FFF7C4FF34BF012000205DF808FB00BF21
:100BD0004FEA410C7FEA6C5C02D150EA013C0AD139
:100BE0004FEA430C7FEA6C5C02D152EA033C02D12B
:100BF0004FF0000070474FF0010070474FEA41028C
:100C000012F5001215D211D56FF47873B3EB62525E
:100C100012D94FEAC12343F0004343EA505311F085
:100C2000004F23FA02F018BF404270474FF0000017
:100C3000704750EA013005D111F0004008BF6FF055
:100C4000004070474FF00000704700BFDFF834D01D
:100C5000002103E00C4B5B58435004310B480C4B14
:100C600042189A42F6D30B4A02E0002342F8043BB2
:100C7000094B9A42F9D300F0BFFF04F0E5FF00F002
:100C8000EFF9FEE700300020CC8A000800000020C9
:100C9000E0010020E0010020C4040020FEE7000085
:100CA00008B503460B4A126842B10A4A1068034469
:100CB0006A46934206D8074A136008BD054A0649AA
:100CC0001160F2E704F0BAFF0C2303604FF0FF302D
:100CD000F3E700BFFC010020C804002010B58AB073
:100CE000002405940694079408940994244B5A69A7
:100CF00042F400225A615A6902F400220192019AD8
:100D00005A6942F480025A615A6902F480020292DE
:100D1000029A5A6942F400325A615A6902F4003266
:100D20000392039A5A6942F480225A615B6903F480
:100D300080230493049B224620214FF0904002F030
:100D40002FFA4FF4005305930E4B0693079405A911
:100D50000D4802F061F920230593012306930794BF
:100D6000089405A94FF0904002F056F9224621461A
:100D7000282001F0DBFF282002F00CF80AB010BD9B
:100D800000100240000021100008004800B583B0A8
:100D90000A4B5A6942F001025A615B6903F0010390
:100DA0000193019B002201210B2001F0BFFF0B20CA
:100DB00001F0F0FF03B05DF804FB00BF001002403B
:100DC00038B50D4C0D4B23600D4B63600025A560BD
:100DD0000123E36025616561A561E5612562204627
:100DE00002F09DFB2946204603F0C9FA2946204619
:100DF00003F0F3FA38BD00BFA40200200054004005
:100E00000E09002008B50948094B03604FF416434A
:100E1000436000238360C36003610C2242618361ED
:100E2000C3610362436204F0A2FD08BD34040020E4
:100E30000044004070B58AB00024079408940994D7
:100E4000019402940394049405940694134D4FF076
:100E5000A0432B606C60AC602C61EC616C622C6315
:100E60000126EE62EC602E626C6304236B61AC6160
:100E7000AC63284601F072F8079407A9284601F0F0
:100E8000BBFE01960296049403940594069401A96E
:100E9000284601F0F9FC0AB070BD00BF1403002021
:100EA00070B586B0002400940194029403940494D5
:100EB0000594114D114B2B606C60AC602C61EC61A2
:100EC0006C622C630126EE62EC602E626C6304237C
:100ED0006B61AC61AC63284601F040F808230093D5
:100EE000019603940294049405946946284601F0FF
:100EF000CBFC06B070BD00BF4C02002000010050CA
:100F000008B50648064B0360002343600C22C2600C
:100F100083600361436203F08DFA08BD180200206C
:100F20003C00014030B589B0002404940594069437
:100F30000794019402940394104D114B2B604FF6CB
:100F4000FF136B601023AB6040F2E733EB602C6162
:100F50006C61AC61284604F07FF94FF48053049330
:100F600004A9284604F09EF901940294039401A96F
:100F7000284604F023FA09B030BD00BFD403002096
:100F8000002C014030B597B0202200210DA804F0BC
:100F90008EFE00240794089409940A940B940094FC
:100FA00001940294039404940594069402250C95EC
:100FB000012310931023119313954FF4601315938D
:100FC0000CA803F0C3FA0F230793089509944FF474
:100FD00080630A930B94294607A803F0FBFD4FF4A6
:100FE000855300934FF480730493039405946846EB
:100FF00003F0F2FE17B030BD2DE9F04184B0144C7F
:10100000012525709F236370124E4FF06408CDF8C0
:1010100008800227019700942B4600228021304649
:1010200002F0F0FB2023237000236370CDF80880CA
:10103000019700942B4605228021304602F0E2FB06
:10104000054B14221A60054B1D6004B0BDE8F08109
:10105000D0030020A4020020A002002010030020E2
:1010600008B500F021FEFFF78DFFFFF737FEFFF711
:101070008DFEFFF7A5FEFFF7C5FEFFF7DBFEFFF7CE
:101080000FFFFFF73DFFFFF74DFF0C4801F06EF833
:101090000B4803F03FFAFFF7AFFF0A490A4B19600C
:1010A00001220A4804F0E9F9012220214FF0904082
:1010B00002F076F8642000F01BFEFBE7140300202A
:1010C00018020020F0020020CC030020340400208D
:1010D000044B1B68B0FBF3F007EE900AB8EE670A0A
:1010E000704700BFA0020020044B1B6813FB00F0F8
:1010F00083B200EE103AB8EE400A704710030020A9
:10110000C008800007EE900AB8EEE70ADFED027A29
:1011100020EE270A704700BF6F12833A07EE900A4D
:10112000B8EEE70ADFED027A20EE270A704700BF2B
:101130000AD7233C7047000000B583B00C4B9A6976
:1011400042F001029A619A6902F001020092009A4B
:10115000DA6942F08052DA61DB6903F0805301936F
:10116000019B062001F0D0FD03B05DF804FB00BF39
:101170000010024010B58AB0002305930693079330
:10118000089309930368B3F1A04F04D03B4A9342FC
:1011900048D00AB010BD0446394A136801331360C1
:1011A000012B31D0374B5A6942F400325A615B69E6
:1011B00003F400330293029B012305930323069358
:1011C00005A94FF0904001F027FF2F482F4B0360F7
:1011D0000023436083608022C2604FF4807202610A
:1011E0004FF4806242618361C36101F01DFEB0B9BA
:1011F000254BE3635C6200220121122001F096FD81
:10120000122001F0C7FDC4E71E4B5A6942F080521C
:101210005A615B6903F080530193019BC2E7FFF7BA
:1012200089FFE5E7164A136801331360012B1AD0D2
:10123000144B5A6942F400225A615B6903F400239B
:101240000493049B042305930323069305A91048E4
:1012500001F0E2FE00220121122001F067FD1220C0
:1012600001F098FD95E7074B5A6942F080525A61A8
:101270005B6903F080530393039BD9E7000100509F
:1012800004020020001002408803002008000240F1
:10129000000800482DE9F04188B00023039304932F
:1012A0000593069307930268274B9A4202D008B031
:1012B000BDE8F081254C636943F4003363616369E1
:1012C00003F400330093009B636943F4802363615C
:1012D000636903F480230193019B4FF4004303935C
:1012E0004FF01208CDF810800127059703260696C7
:1012F0000425079503A94FF0904001F08DFE80234F
:101300000393CDF8108005970696079503A910481A
:1013100001F082FEE36943F40013E361E36903F43F
:1013200000130293029B002211461F2001F0FEFCD5
:101330001F2001F02FFD00221146202001F0F6FCB5
:10134000202001F027FDB2E70054004000100240C9
:101350000004004810B588B000230393049305935C
:10136000069307930268174B9A4201D008B010BD4C
:1013700003F5873303F5E2735A6942F400325A6188
:101380005A6902F400320192019A5A6942F4002229
:101390005A615B6903F400230293029BC023039309
:1013A0000324049403A94FF0904001F035FE20235C
:1013B000039304940023059303A9034801F02CFE32
:1013C000D4E700BF3C0001400008004802680E4B13
:1013D0009A4200D0704700B583B003F564439A6920
:1013E00042F400629A619B6903F400630193019BDC
:1013F00000221146192001F099FC192001F0CAFCC5
:1014000003B05DF804FB00BF002C014000B589B0BB
:101410000023039304930593069307930268184BE4
:101420009A4202D009B05DF804FB03F5E633DA69AD
:1014300042F40032DA61DA6902F400320192019A70
:101440005A6942F400325A615B6903F40033029333
:10145000029B0C2303930223049303230693072385
:10146000079303A94FF0904001F0D6FD00221146EA
:10147000262001F05BFC262001F08CFCD2E700BFA7
:10148000004400407047FEE7FEE7FEE7FEE77047D6
:101490007047704708B500F019FC08BD08B5024850
:1014A00001F060FD08BD00BF8803002008B50348B7
:1014B00001F086F8024801F083F808BD140300200B
:1014C0004C02002008B5024803F0B1FD08BD00BF82
:1014D000D403002008B5024802F07DFA08BD00BF21
:1014E000A402002008B5024802F0F9FE08BD00BFC2
:1014F000A402002008B5024804F0F0FA08BD00BFBD
:101500003404002008B54FF4005001F053FE08BD2C
:1015100010B54F4B1B78DBB2022B36D100231A4695
:1015200005E04C4931F813100A4401339BB2032BF8
:10153000F7D9C2F38F02484B1A80474B1888FEF741
:1015400099FF3FA3D3E90023FEF7FEFF3EA3D3E9B3
:101550000023FFF723F9FFF709FA07EE100ADFED82
:101560003F7A87EE276ADFED3E7AC6EE276AF1EE14
:10157000047A66EEA77A3B4B1B78013B052B57D8C4
:10158000DFE803F009282F3E174D374801F010F827
:10159000314B1880D1E7DFED357A66EE277A17EE0A
:1015A000900AFEF779FF02460B463149314804F0B4
:1015B000E3FF314B01221A702E4C2046FFF726FA2A
:1015C00082B221462D4803F032FF2B4B1B78002BB3
:1015D000FBD110BD00222A4B2A49264804F0CCFF3B
:1015E000E7E79FED227A67EE877A17EE900AFEF71B
:1015F00053FF02460B4624491E4804F0BDFFD8E7BE
:10160000DFED1A7A66EEA77A17EE900AFEF744FF2E
:1016100002460B461D49174804F0AEFFC9E7FEF726
:101620003BFF02460B461749124804F0A5FFC0E7EE
:10163000104B174A1188927819809A70B9E700BF49
:101640006666666666660A400000000000FEAF40FF
:1016500000000020B0040020140200204DFB3542A1
:101660003333B340B80400201403002000007A4450
:101670002487000868030020AC0400203404002004
:1016800000001440308700083C87000848870008A5
:1016900054870008014B00221A707047AC040020E8
:1016A0007047000010B52A4B1A78587840EA02209B
:1016B000284B1B78013B042B42D8DFE803F0031AC8
:1016C00027340F00FFF72AFD10EE100AFEF7E4FEA4
:1016D00002460B462049214804F04EFF1F4C20468D
:1016E000FFF794F9322382B221461D4804F0A0F896
:1016F00010BDFFF705FD10EE100AFEF7CDFE024605
:101700000B461849154804F037FFE7E7FFF7ECFCF4
:1017100010EE100AFEF7C0FE02460B4612490F48B3
:1017200004F02AFFDAE7FFF7D3FC10EE100AFEF709
:10173000B3FE02460B460D49084804F01DFFCDE7F5
:10174000064B0B4A1188927819809A70C6E700BF41
:10175000D0030020B8040020588700086803002048
:101760003404002064870008708700087C87000824
:1017700054870008124B1B7803B330B583B003F0D5
:10178000FF02042A05D9062A16D10E4800F070FD82
:1017900012E00B4B1B780C4C23700C4D6423009310
:1017A000012322468021284601F018FF0223224609
:1017B0008021284601F0DAFF03B030BD704700BF3A
:1017C000B804002014030020D0030020A40200204D
:1017D00008B50E4B1B889BB29BB10C4A138813882B
:1017E000013B9BB213800A4B1B78DBB2012B05D067
:1017F00004220849084800F005FE08BDFFF7BAFFBB
:10180000FBE7064803F0F9FBF7E700BFAE04002052
:1018100000000020B004002014030020D4030020A6
:1018200008B50B4B1B689B009BB20A4A13800A4BFE
:101830001A6800235362094B1B68002B06DB9B10C0
:10184000013BD362044803F0CCFB08BD0333F6E749
:10185000A8040020AE040020D4030020A40400202B
:1018600008B5084B1B689BB2074A138007480268FB
:1018700000235362064B1B68013BD36203F0B1FBAC
:1018800008BD00BFA8040020AE040020D40300203F
:10189000A4040020B0F5005F00D0704710B52021EF
:1018A0004FF0904001F081FC104803F0A6FB104B74
:1018B0001B78DBB2012B0AD00D4B01221A700D48A8
:1018C00000F03AFEFFF7CCFFFFF754FF10BD084BC6
:1018D00002221A70074C204600F06AFDFFF7A0FFB5
:1018E00004220549204600F08DFDEFE7D4030020D7
:1018F0000000002014030020B004002030B58BB09D
:1019000004464F4B01221A604E4B64221A604E4B24
:1019100009934E4B93E803000790ADF820104C4B11
:1019200093E8030005908DF818104A4B04934A4B36
:1019300093E8030002908DF80C10484B93E80300E5
:1019400000908DF8041009A8FFF760F805460246DC
:1019500009A9204604F09CF9002839D002A8FFF715
:1019600055F80546024602A9204604F091F90028E0
:1019700039D004A8FFF74AF80546024604A92046D4
:1019800004F086F9002838D007A8FFF73FF805468D
:10199000024607A9204604F07BF9002837D005A8A5
:1019A000FFF734F80546024605A9204604F070F911
:1019B000002836D06846FFF729F8024669462046D7
:1019C00004F066F9002836D02278254B1A7008E01A
:1019D0001C4B1B4A2349601904F0EEFD204B0622E4
:1019E0001A700BB030BD174B154A1E49601904F030
:1019F000E3FD1B4B01221A70F3E7124B104A194901
:101A0000601904F0D9FD164B02221A70E9E70D4B5C
:101A10000B4A1449601904F0CFFD114B03221A70D0
:101A2000DFE7084B064A0F49601904F0C5FD0C4B6F
:101A300004221A70D5E70A4B05221A70D1E700BFBD
:101A4000A8040020A40400206164630090870008BB
:101A500098870008766F6C00A0870008A8870008A8
:101A6000B80400208887000810B5FFF747FF1A4B1D
:101A70001B78DBB2022B0FD0184800F05DFD184830
:101A800003F0BBFA174B1B78013B052B12D8DFE89C
:101A900003F0181818181E12104C204600F088FC8D
:101AA0000F4803F0AAFAFFF7BBFE04220E492046B6
:101AB00000F0A8FC10BDFFF7D3FE084800F0D8FBEB
:101AC000F8E7FFF7CDFE054800F0D2FBF2E7044847
:101AD00003F093FAEEE700BF00000020140300209B
:101AE000D4030020B8040020B004002010B5164B29
:101AF0001868164B1978435C0A2B09D00131C9B21A
:101B0000124B197001220144114803F0B6FC10BDBC
:101B1000FFF7AAFF0D4B1A780B4C013221680C48D5
:101B200003F085FC22680B4B9A420AD00949064B08
:101B300019600122064803F0A0FC044B00221A7031
:101B4000E5E70549F3E700BFCC03002008020020C9
:101B500034040020F00200201404002038B50B4C9F
:101B60000B4D0FCD20606160A260E36028682061AA
:101B7000AA88AB79A282A3752046FEF747FF0A2305
:101B800082B22146034803F053FE38BD68030020AB
:101B9000B087000834040020F8B5134D284603F040
:101BA000D3FC0746284603F0C9FC06460F4C3A46CC
:101BB0000F49204604F0E0FC2046FEF727FF3223C1
:101BC00082B22146284603F033FE324609492046B8
:101BD00004F0D2FC2046FEF719FF322382B22146E0
:101BE000284603F025FEF8BD3404002068030020D9
:101BF000C8870008D88700081549D1F8883043F411
:101C00007003C1F88830134B1A6842F001021A6061
:101C10005868114A02405A601A6822F0847222F40D
:101C200080321A601A6822F480221A605A6822F4FC
:101C3000FE025A60DA6A22F00F02DA62186B074A73
:101C400002401A6300229A604FF000638B60704775
:101C500000ED00E0001002400CC07FF8CCFC00FF5B
:101C600010B504460E4B18784FF47A73B3FBF0F3BB
:101C70000C4A1068B0FBF3F001F098F868B90F2C2B
:101C800001D901200AE0002221464FF0FF3001F087
:101C90004DF8034B5C60002000E0012010BD00BF48
:101CA000080000200400002008B5074A136843F02C
:101CB00010031360032001F027F80020FFF7D0FF86
:101CC000FFF73AFA002008BD00200240034A1168DD
:101CD000034B1B780B441360704700BFBC0400200B
:101CE00008000020014B1868704700BFBC040020AA
:101CF00038B50446FFF7F6FF0546B4F1FF3F02D0C2
:101D0000044B1B781C44FFF7EDFF401BA042FAD3A5
:101D100038BD00BF0800002070477047704738B5D5
:101D20000268936803F00303012B01D0002038BD43
:101D3000136813F0010F2FD0936803F00D03012BEC
:101D400009D0436C43F010034364836C43F00103F8
:101D500083640120EBE70446936843F00203936039
:101D6000036803221A60FFF7BDFF054623689B68DE
:101D700013F0010F0ED0FFF7B5FF401B0228F5D975
:101D8000636C43F010036364A36C43F00103A3642A
:101D90000120CCE70020CAE70020C8E703689A6862
:101DA00012F00C0F62D070B50446DA6812F0007FB2
:101DB00002D0C269012A38D060290CD023689A6801
:101DC00012F0040F07D09A6812F0020F03D19A683C
:101DD00042F010029A600C290CD023689A6812F025
:101DE000080F07D09A6812F0020F03D19A6842F0E8
:101DF00020029A60602935D06C2931D10C25FFF77B
:101E000071FF064623689B682B422DD0FFF76AFFBF
:101E1000801B0B28F6D9636C43F010036364A36C3A
:101E200043F00103A36401201FE08269012AC3D1AA
:101E30000022196811F0400F0ED10D498A4201D8D5
:101E40000132F6E7636C43F010036364A36C43F064
:101E50000103A364012008E040221A600C21ADE7D1
:101E60000425CCE70825CAE7002070BD0020704794
:101E7000FF93090038B50268936803F00303012B50
:101E80000DD09168184B19420FD0436C43F01003EA
:101E90004364836C43F001038364012038BD1368FD
:101EA00013F0010FEDD00020F8E70446936843F0EB
:101EB00001039360FFF716FF054623681B6813F0C4
:101EC000010F0ED1FFF70EFF401B0228F5D9636CFE
:101ED00043F010036364A36C43F00103A364012087
:101EE000DCE70020DAE700BF3F00008008B5406A69
:101EF000436C43F040034364836C43F00403836406
:101F0000FFF70CFF08BD08B5406AFFF705FF08BDE5
:101F100008B5436A5A6C12F0500F03D0DB6B1B6B91
:101F2000984708BD5A6C42F400725A641A68D26825
:101F300012F4406F0DD1DA695AB95A6C22F48072EA
:101F40005A645A6C12F4805F03D15A6C42F0010259
:101F50005A641846FFF7DCFAE3E7000030B597B0A3
:101F600000230093002800F0F5800446436C13F032
:101F7000100F52D1436CABB1002023689A6812F065
:101F8000805F03D09B6813F0005F47D0636C23F041
:101F9000120343F010036364A36C43F00103A364D2
:101FA00001203BE083640365C36480F84030FFF7A1
:101FB000E1F823689B6813F0805F01D00020DCE724
:101FC0002046FFF7ACFE636C13F0100FD5D100284C
:101FD000D3D1636C23F4885323F0020343F002034C
:101FE00063642268936823F0405393602268936887
:101FF00043F080539360584B1B68584AA2FB03235D
:102000009B0C03EB83035A00009202E0009B013B10
:102010000093009B002BF9D1AFE70020636C13F015
:10202000100F40F08E80002840F08B8023689A6863
:1020300012F0040240F08580616C21F4817141F05E
:1020400002016164B3F1A04F52D04FF0A041019161
:10205000996801F0030101294DD0019B23B19968D2
:1020600001F0030101294BD03D498B6823F4403333
:1020700065682B438B60E1694B03A56B012D01D093
:102080004FF480521343E2681343A2681343626A19
:10209000012A3AD0E26A012A02D0216B0A43134393
:1020A0002268916811F00C0F0BD1D16821F48041A6
:1020B00021F00201D160A169626B520042EA8132D3
:1020C00013432168CD68274A2A401343CB60236914
:1020D000012B2DD02268136B23F00F031363002311
:1020E000A364636C23F0030343F0010363642FE0F4
:1020F0001D490191ACE71B6813F0010FBBD1ACE7A0
:102100001B6813F0010FB6D1AEE731B9A26A013AEC
:1021100043EA424343F48033BCE7626C22F022027C
:1021200042F020026264A26C42F00102A264B1E7B4
:1021300021680B6B23F00F03226A013A13430B63F0
:10214000CDE7636C23F0120343F0100363640120B6
:1021500017B030BD0120FBE70400002083DE1B43E5
:102160000003005007C0F0FF0001005003689B68A7
:1021700013F0040F72D190F84030012B71D010B5DC
:102180000446012380F84030FFF774FE0346002820
:102190005FD1626C22F4706222F0010242F480721C
:1021A0006264314A926812F01F0F17D02168B1F1B2
:1021B000A04F13D0626C42F4801262642B4A9142A9
:1021C0001BD14FF0A042D26812F0007F15D0626C94
:1021D00022F4405242F4805262640EE0626C22F4B7
:1021E000801262642268D26812F0007F05D0626CAF
:1021F00022F4405242F480526264626C12F4805FB6
:1022000024D0A26C22F00602A264002284F84020AE
:1022100022681C211160144A926812F01F0F0FD01F
:10222000114A926802F01F02052A09D00E4A9268EC
:1022300002F01F02092A03D02268B2F1A04F0BD18D
:1022400021688A6842F004028A6005E00022A264E4
:10225000DBE7002284F84020184610BD0223184610
:1022600070470223FBE700BF00030050000100504D
:1022700003689B6813F0040F40F0908090F84030A2
:10228000012B00F08E8010B50446012380F8403009
:10229000FFF7F0FD034600287BD1626C22F47062E8
:1022A00022F0010242F4807262643F4A926812F0A6
:1022B0001F0F17D02168B1F1A04F13D0626C42F408
:1022C00080126264394A91421BD14FF0A042D26819
:1022D00012F0007F15D0626C22F4405242F480521A
:1022E00062640EE0626C22F4801262642268D2683A
:1022F00012F0007F05D0626C22F4405242F480520A
:102300006264626C12F4805F34D0A26C22F0060228
:10231000A264002284F8402022681C2111606269B6
:10232000082A2AD121684A6822F004024A602168FA
:102330004A6842F008024A60A26B012A23D01A4A76
:10234000926812F01F0F0FD0174A926802F01F0216
:10235000052A09D0144A926802F01F02092A03D004
:102360002268B2F1A04F17D121688A6842F00402B6
:102370008A6011E00022A264CBE721684A6842F03B
:102380000C024A60D8E721684A6822F010024A60CD
:10239000D5E7002284F84020184610BD02231846D5
:1023A00070470223FBE700BF00030050000100500C
:1023B00090F84030012B22D010B50446012380F85C
:1023C00040306C21FFF7EAFC034620B1002284F87C
:1023D0004020184610BD2268536823F01C03536048
:1023E0002046FFF79CFC03460028EFD1626C22F4E4
:1023F000885222F0010242F001026264E6E7022301
:1024000018467047F8B50468A46814F0040F40F04B
:10241000848090F84040012C00F08180012380F8F6
:102420004030404B9B6813F01F0F05D0002380F80D
:10243000403001252846F8BD17460E460446FFF7F2
:1024400019FD0546002864D1636C23F4706323F002
:10245000010343F480736364324B9B6813F01F0FD6
:1024600017D02268B2F1A04F13D0636C43F48013ED
:1024700063642D4B9A421BD14FF0A043DB6813F0ED
:10248000007F15D0636C23F4405343F4805363649E
:102490000EE0636C23F4801363642368DB6813F03D
:1024A000007F05D0636C23F4405343F4805363648E
:1024B000636C13F4805F29D0A36C23F00603A3643C
:1024C000002384F84030E36B184A9A62E36B184AA1
:1024D000DA62E36B174A1A6323681C221A602268C7
:1024E000536843F0100353602268D36843F001033C
:1024F000D36021683B4632464031E06B00F0BCFCC3
:102500002268936843F00403936093E70023A36475
:10251000D6E7002384F840308CE702258AE70225BD
:1025200088E700BF0003005000010050111F0008A1
:10253000071F0008ED1E000838B590F84030012B49
:1025400034D00446012380F840306C21FFF726FC8C
:10255000054620B1002384F84030284638BD226863
:10256000D36823F00103D360E06B00F0BFFC0546A5
:1025700018B1636C43F0400363642268536823F02E
:102580001003536075B92046FFF7C9FB0546002DBF
:10259000E0D1636C23F4885323F0010343F001037B
:1025A0006364D7E72046FFF7BAFBF0E70225D4E7DC
:1025B0000368186C70477047704770477047000099
:1025C00010B5044603681A6812F0040F03D05A6865
:1025D00012F0040F07D11A6812F0080F52D05A688F
:1025E00012F0080F4ED0626C12F0100F03D1626C23
:1025F00042F400726264A34A926812F01F0F12D074
:10260000A04A926802F01F02052A0CD09D4A9268E7
:1026100002F01F02092A06D0B3F1A04F03D04FF0F9
:10262000A042D16800E0D968DA6812F4406F23D183
:1026300011F4005F20D11A6812F0080F1CD09A68BC
:1026400012F0040F10D15A6822F00C025A60636C29
:1026500023F480736364636C13F4805F0CD1636C48
:1026600043F00103636407E0636C43F010036364A9
:10267000A36C43F00103A3642046FEF749FF2368DF
:102680000C221A6023681A6812F0200F03D05A68CF
:1026900012F0200F07D11A6812F0400F71D05A685B
:1026A00012F0400F6DD0626C42F400526264754AC1
:1026B000926812F01F0F12D0724A926802F01F0245
:1026C000052A0CD06F4A926802F01F02092A06D030
:1026D000B3F1A04F03D04FF0A042D16800E0D96819
:1026E000DA6C12F0C00F09D011F0007F43D1DA6824
:1026F00012F4406F3FD111F4005F3CD11A6812F020
:10270000400F38D05F4A926812F01F0F12D05D4A16
:10271000926802F01F02062A0CD05A4A926802F010
:102720001F02072A06D0B3F1A04F03D04FF0A042FA
:10273000D26800E0DA6812F4001F1CD19A6812F027
:10274000080F10D15A6822F060025A60636C23F4BB
:1027500080536364636C13F4807F0CD1636C43F02B
:102760000103636407E0636C43F010036364A36CCC
:1027700043F00103A3642046FFF71DFF2368602296
:102780001A6023681A6812F0800F03D05B6813F098
:10279000800F3ED123681A6812F4807F03D05B68F3
:1027A00013F4807F40D123681A6812F4007F03D0AD
:1027B0005B6813F4007F43D123681A6812F0100F8E
:1027C0001DD05A6812F0100F19D0A26B012A08D040
:1027D0002C4A926812F01F0F3ED1DB6813F0010FF4
:1027E0000AD0636C43F480636364A36C43F0020318
:1027F000A3642046FFF792FA236810221A60236828
:102800001A6812F4806F03D05A6812F4806F29D1CD
:1028100010BD636C43F4803363642046FFF77DFA98
:10282000236880221A60B5E7636C43F40033636465
:102830002046FFF7C2FE23684FF480721A60B2E7A9
:10284000636C43F4802363642046FFF7B7FE23687C
:102850004FF400721A60AFE70A4B9B6813F4404FC5
:10286000CAD0BEE7626C42F480426264A26C42F05D
:102870000802A2644FF480621A602046FFF79CFEB3
:10288000C6E700BF0003005030B496B000220092AB
:1028900090F84020012A00F0A4810346012280F82C
:1028A00040200068826812F0040F40F08F814A686F
:1028B000042A31D8046B02EB420255001F22AA40C1
:1028C00024EA02020C68AC40224302631868826862
:1028D00012F00C0F68D10A68092A4ED9846902EBFC
:1028E00042021E3A0725954024EA05048D6805FA40
:1028F00002F22243826148691C68E268C2F3C102A5
:10290000520000FA02F208690138032800F28B80B5
:10291000DFE800F04068737E092A0ED8446B02EBB2
:10292000420255001E3D1F22AA4024EA02020C6802
:1029300004FA05F52A434263C8E70E2A0ED8846BD1
:1029400002EB420255003C3D1F22AA4024EA02024B
:102950000C6804FA05F52A438263B7E7C46B02EBFF
:10296000420255005A3D1F22AA4024EA02020C6886
:1029700004FA05F52A43C263A8E7446902EB420260
:102980000725954024EA05048D6805FA02F22243E2
:102990004261B0E7206E944D0540086842EA8062CB
:1029A000154345F0004525661868826802F0030269
:1029B000012A6BD0CA68012A6ED0D0F8B0200D6809
:1029C0000124AC4022EA0402C0F8B0200A68102AB0
:1029D00000F08B80112A00F0A980122A00F0AC8050
:1029E0000020F8E0606E804D0540086842EA806291
:1029F000154345F000456566D6E7A06E7A4D054063
:102A0000086842EA8062154345F00045A566CBE7B9
:102A1000E56E754828400D6842EA8562024342F03F
:102A20000042E266C0E7226E02F0F8420868B2EBAC
:102A3000806F1CD01868426E02F0F8420C68B2EB4E
:102A4000846F19D01868826E02F0F8420C68B2EBFD
:102A5000846F16D01868C26E02F0F8420C68B2EBB0
:102A6000846FA1D1C26E22F00042C2669CE7226E42
:102A700022F000422266DDE7426E22F0004242660A
:102A8000E0E7826E22F000428266E3E7026812F01D
:102A9000010F8FD000209EE0D0F8B0200D680124F7
:102AA000AC402243C0F8B0200A68092A0ED91D683C
:102AB000A86902EB42021B3A0724944020EA040072
:102AC0008C6804FA02F20243AA617FE71D68686914
:102AD000013202EB42020724944020EA04008C6891
:102AE00004FA02F202436A6170E74049896811F40E
:102AF000000F7FF46FAF1868B0F1A04F23D04FF0F4
:102B0000A0410191816801F0030101291ED00199C2
:102B100021B18C6804F00304012C21D0102A24D0A8
:102B2000112A42D0122A4AD0002054E02F49896845
:102B300011F0807FDFD050E72C49896811F4800FB5
:102B4000D9D0002047E02A490191DBE7016811F064
:102B5000010FDCD05A6C42F020025A6401203AE0A6
:102B6000096811F0010FF5D1D8E7B0F1A04FD7D126
:102B70001E498A6842F400028A601E4A1268A1F166
:102B80004E61A1F58421A1F27D41A1FB0212920CBC
:102B900002EB82025100009102E0009A013A009299
:102BA000009A002AF9D1002015E0B0F1A04FB9D168
:102BB0000E498A6842F080728A6000200BE00B495F
:102BC0008A6842F480028A60002004E05A6C42F075
:102BD00020025A640120002283F8402016B030BC45
:102BE00070470220FAE700BF00F0FF8300030050A7
:102BF000000100500400002070B497B00346026842
:102C0000B2F1A04F39D04FF0A040019001980028B8
:102C100072D093F84040012C70D0012483F84040DA
:102C2000926812F0040F5CD1826812F0040F58D140
:102C30000A68002A30D0324DAA6822F460424C68FB
:102C40005E6B44EA46342243AA601C68A26802F024
:102C50000302012A14D0826802F00302012A15D06F
:102C6000274CA26822F4716222F00F02086889687A
:102C700001430A43A260002038E022480190C5E7E2
:102C8000226812F0010FE6D000202FE0026812F057
:102C9000010FE5D0002029E019498A6822F460423A
:102CA0008A6019688A6802F00302012A0DD08268DE
:102CB00002F00302012A0ED011498A6822F47162DF
:102CC00022F00F028A60002010E00A6812F0010F63
:102CD000EDD000200AE0026812F0010FECD00020D5
:102CE00004E05A6C42F020025A640120002283F86A
:102CF000402017B070BC70470120FAE70220F8E7C7
:102D00000003005000010050074AD36823F4E06339
:102D10001B041B0C000200F4E060184340F0BF608D
:102D200040F40030D060704700ED00E030B4174B45
:102D3000DB68C3F30223C3F10704042C28BF042477
:102D40001D1D062D18D9033B4FF0FF3505FA04F47D
:102D500021EA0401994005FA03F322EA0303194327
:102D600000280BDB0901C9B200F1604000F56140A9
:102D700080F8001330BC70470023E5E700F00F0037
:102D80000901C9B2024B1954F4E700BF00ED00E09D
:102D900014ED00E000F01F02400901239340024AB5
:102DA00042F82030704700BF00E100E00138B0F188
:102DB000807F0AD2064B5860064AF02182F8231021
:102DC0000020986007221A6070470120704700BFFA
:102DD00010E000E000ED00E070B4066CC56B01246B
:102DE000B4406C60046863604368102B05D00368CE
:102DF00099600368DA6070BC704703689A60036882
:102E0000D960F8E70268054B1344054AA2FB032387
:102E10001B099B000364034BC3637047F8FFFDBFAE
:102E2000CDCCCCCC0000024020B310B50446022328
:102E300080F8213001680A6822F47F5222F03002C3
:102E4000436880680343E068034320690343606983
:102E50000343A0690343E069034313430B60204627
:102E6000FFF7D0FF0020A063012384F8213084F80D
:102E7000200010BD0120704738B590F82040012C8B
:102E800032D0012480F8204090F82140012C04D059
:102E9000002380F82030022038BD0446022084F848
:102EA00021000020A0632568286820F00100286028
:102EB0002046FFF791FFE36A5BB12268136843F095
:102EC0000E0313602268136843F0010313600020AF
:102ED000E2E72268136843F00A031360226813686C
:102EE00023F004031360EDE70220D5E703460168F1
:102EF0000A6822F00E020A6001680A6822F00102E4
:102F00000A60026CC06B012101FA02F2426083F890
:102F10002110002083F82000704708B590F8213078
:102F2000022B03D004238363012008BD02681368C9
:102F300023F00E0313600268136823F0010313608B
:102F4000036CC16B012202FA03F34B6080F821206D
:102F5000002380F82030436B13B198470020E4E74A
:102F60000020E2E738B5C36B1A6804682568016C75
:102F700004238B40134213D015F0040F10D02368A4
:102F800013F0200F03D1236823F004032360016CA6
:102F9000C26B04238B405360C36A03B1984738BDAA
:102FA00002238B4013421AD015F0020F17D023686A
:102FB00013F0200F06D1236823F00A0323600123B6
:102FC00080F82130016CC26B02238B4053600023D8
:102FD00080F82030836A002BE1D09847DFE7082390
:102FE00003FA01F11142DAD015F0080FD7D02368A7
:102FF00023F00E032360026CC16B012303FA02F27B
:103000004A60836380F82130002380F82030036B0E
:10301000002BC4D09847C2E7F0B482B0002336E05A
:10302000032400E00024B4403C430235584E46F8E7
:103030002540584C2568D44304EA05064F6817F428
:10304000803F01D042EA0506524D2E606D6804EAC9
:1030500005064F6817F4003F01D042EA05064D4DC2
:103060006E60AD6804EA05064F6817F4801F01D052
:1030700042EA0506474DAE60ED682C404E6816F4F6
:10308000001F01D042EA0504424AD46001330A68B5
:1030900032FA03F478D001249C402240F6D04D68E7
:1030A000022D01D0122D10D1DE08083650F826C0AE
:1030B00003F00705AF000F25BD402CEA050C0D6994
:1030C000BD4045EA0C0540F8265006685F00032520
:1030D000BD40ED4305EA060C4E6806F00306BE400F
:1030E00046EA0C0606604E6806F1FF3CBCF1010F93
:1030F00003D9112E01D0122E10D1866805EA060CD4
:10310000CE68BE4046EA0C068660466826EA04049D
:103110004E68C6F300169E4026434660C4682540AC
:103120008C68BC402C43C4604C6814F0805FADD008
:10313000194CA56945F00105A561A46904F00104D5
:103140000194019C9D08AE1C114C54F8267003F0AC
:103150000304A6000F24B44027EA0407B0F1904FFF
:103160003FF460AF0D4CA0420AD004F58064A04249
:1031700008D004F58064A0423FF452AF052452E722
:10318000012450E702244EE702B0F0BC704700BFB4
:10319000000001400004014000100240000400480B
:1031A0000AB9816270478161704743695940416142
:1031B0007047000008B5054B5B69034200D108BDAC
:1031C000024B5861FEF766FBF9E700BF00040140BF
:1031D00003689A6912F0020F01D000229A62036814
:1031E0009A6912F0010F03D19A6942F001029A61C3
:1031F000704770B4039E05686868740D04F48064B9
:1032000044F07F7444F4583444F47F7444F003046D
:1032100020EA0400C1F3090141EA024119433143A4
:103220000143696070BC7047436B1E4A934217D0DC
:103230001D4A934214D011F0040F30D1002311F035
:10324000010F01D043F0F20311F0020F01D043F05F
:10325000F40301F01201122910D143F020030DE014
:1032600011F0040F10D1002301F01102112A0DD02A
:1032700001F0120112290CD012290DD001680A6840
:1032800013430B6000207047B823EDE743F0900331
:10329000EEE743F02003EFE743F04003EEE7B82307
:1032A000CDE700BFFD410008173F000810B411F042
:1032B000010F09D090F8413003F02803282B01D0EA
:1032C000F22302E0422300E0002311F0020F09D0B4
:1032D00043F0440490F8412002F02802282A19D033
:1032E00043F0F40311F0040F01D043F0B80301F0F0
:1032F0001102112A10D001F0120112290FD0122947
:1033000010D001680A6822EA03030B6000205DF810
:10331000044B70472346E5E743F09003EBE743F0A7
:103320002003ECE743F04003EBE770B504460D469D
:10333000164603689B6913F0100F17D023689A692B
:1033400012F0200F14D1B5F1FF3FF7D025B1FEF7F1
:10335000C9FC801BA842F1D9202384F84130002306
:1033600084F8423084F8403003201EE000201CE046
:103370001022DA6123682025DD612046FFF728FF4F
:103380002268536823F0FF7323F48B3323F4FF7315
:1033900023F0010353600423636484F84150002345
:1033A00084F8423084F84030012070BD70B5044686
:1033B0000D46164623689B6913F0020F1CD1324656
:1033C00029462046FFF7B1FFC0B9B5F1FF3FF1D064
:1033D00025B1FEF787FC801BA842EBD9636C43F054
:1033E00020036364202384F84130002384F84230B2
:1033F00084F84030032000E0002070BD0120FCE78D
:10340000F8B505460F4616461C462B689B6937EAF9
:1034100003030CBF01230023B34213D1B4F1FF3FD8
:10342000F3D02CB1FEF75EFC069BC01AA042ECD98B
:10343000202385F84130002385F8423085F840305C
:10344000032000E00020F8BD70B582B004461646A7
:103450001D461E4B00934FF08073EAB2FFF7C9FE82
:10346000079A06992046FFF7A1FF30B1636C042B41
:1034700027D10123184602B070BD012D0FD123685A
:10348000F6B29E62079B0093069B00228021204695
:10349000FFF7B6FF03460028ECD00323EAE72368D2
:1034A000320A9A62079A06992046FFF77FFF20B1F9
:1034B000636C042B07D10123DCE72368F6B29E621C
:1034C000E0E70323D6E70323D4E700BF0020008012
:1034D00070B505460C4616462B689B6913F0200F05
:1034E00019D1324621462846FFF71FFFA8B924B15B
:1034F000FEF7F8FB801BA042EED96B6C43F0200373
:103500006B64202385F84130002385F8423085F82C
:103510004030032070BD0020FCE70120FAE70028BE
:1035200059D010B5044690F84130002B43D02423E5
:1035300084F841302268136823F001031360636844
:10354000226823F0706313612268936823F40043B8
:103550009360E368012B33D0A368226843F40443EB
:103560009360E368022B31D02268536843F0007304
:1035700043F4004353602268D36823F40043D360CC
:10358000236962691343A169226843EA0123D36076
:10359000E369216A22680B4313602268136843F0D1
:1035A0000103136000206064202384F8413020630D
:1035B00084F8420010BD80F84030FDF76BFEB6E79E
:1035C000A368226843F400439360CAE723684FF47A
:1035D00000625A60C8E70120704700002DE9F043FF
:1035E00083B090F84150EDB2202D40F0AD8090F8BE
:1035F0004040012C00F0AD80984617460E46044628
:103600004FF0010980F84090FEF76CFB05460090F2
:1036100019234A464FF400412046FFF7F1FE0028E7
:1036200040F09980212384F84130102384F84230FF
:10363000002363646762A4F82A806363638D9BB28E
:10364000FF2B0AD9FF222285474B00934FF080734E
:1036500031462046FFF7CDFD1DE0628D92B22285F6
:10366000414B00934FF00073D2B231462046FFF732
:10367000C0FD10E0636C042B6FD1012365E0628D07
:1036800092B22285002300934FF00073D2B23146EC
:103690002046FFF7AEFD638D9BB2002B32D02A4649
:1036A0000A992046FFF782FE0028E3D1636A5A1C7C
:1036B000626222681B789362638D013B9BB26385D3
:1036C000238D013B9BB22385002BE4D1638D9BB2FC
:1036D000002BE0D000950A9B002280212046FFF7B6
:1036E0008FFE00283BD1638D9BB2FF2BC7D9FF22F1
:1036F0002285002300934FF0807331462046FFF768
:1037000078FDC8E72A460A992046FFF7E1FE0346FE
:1037100020B1636C042B24D1012316E02268202100
:10372000D1612068426822F0FF7222F48B3222F4C9
:10373000FF7222F00102426084F84110002284F8F6
:10374000422084F8402000E00223184603B0BDE880
:10375000F0830223F9E70323F7E70323F5E70323C5
:10376000F3E70323F1E700BF0020008030B583B00A
:1037700090F84140E4B2202C37D10468A46914F4D5
:10378000004F35D190F84040012C33D0012480F80F
:103790004040222480F84140102480F84240002418
:1037A000446442624385144BC362144B4363438DAC
:1037B0009BB2FF2B14D9FF2303854FF0807304467F
:1037C00090F828200E4800902046FFF712FD0025B3
:1037D00084F8405002212046FFF726FD284605E0E8
:1037E000438D03854FF00073E9E7022003B030BD3D
:1037F0000220FBE70220F9E70000FFFF89400008F4
:10380000002400802DE9F04782B0BDF82C7090F8BC
:103810004150EDB2202D40F0CB800A9C002C00F0EE
:10382000CC80002F00F0CB8090F84040012C00F0BD
:10383000C880984691460D4604464FF0010A80F82C
:1038400040A0FEF74FFA06460090192352464FF467
:1038500000412046FFF7D4FD002840F0B48021232A
:1038600084F84130402384F84230002363640A9A8C
:1038700062626785636301960C9B009343464A46E8
:1038800029462046FFF7E0FD60B1636C042B04D1AC
:10389000002384F8403053468BE0002384F8403006
:1038A000032386E0638D9BB2FF2B0AD9FF2222857A
:1038B000002300934FF0807329462046FFF799FCC0
:1038C00021E0628D92B22285002300934FF00073B5
:1038D000D2B229462046FFF78CFC14E0636C042B1F
:1038E00073D1012365E0628D92B22285002300939B
:1038F0004FF00073D2B229462046FFF77AFC638D61
:103900009BB2002B32D032460C992046FFF74EFD79
:103910000028E3D1636A5A1C626222681B789362B2
:10392000638D013B9BB26385238D013B9BB2238555
:10393000002BE4D1638D9BB2002BE0D000960C9B52
:10394000002280212046FFF75BFD00283FD1638DD8
:103950009BB2FF2BC7D9FF222285002300934FF093
:10396000807329462046FFF744FCC8E732460C998D
:103970002046FFF7ADFD034620B1636C042B28D130
:10398000012316E022682021D1612068426822F0DC
:10399000FF7222F48B3222F4FF7222F001024260A5
:1039A00084F84110002284F8422084F8402000E08E
:1039B0000223184602B0BDE8F0870123F9E701238E
:1039C000F7E70223F5E70323F3E70323F1E70323F4
:1039D000EFE70323EDE708B5036899691A68436BBD
:1039E00003B1984708BD38B50446002380F842303B
:1039F00090F84130DBB2212B0FD0202380F84130EA
:103A000012230363002545630221FFF74FFC84F86E
:103A100040502046FDF746FE38BD202380F8413057
:103A200011230363002545630121FFF73FFC84F860
:103A300040502046FDF734FEEEE77047704710B562
:103A40000446002380F8423090F84130DBB2292B45
:103A500005D090F84130DBB22A2B0FD010BD2823BF
:103A600080F84130212303630121FFF71FFC00236D
:103A700084F840302046FFF7E0FFEFE7282380F886
:103A80004130222303630221FFF710FC002384F856
:103A900040302046FFF7D2FFE0E77047F8B590F8D6
:103AA000413003F02803282B06D003680822DA618E
:103AB000002380F84030F8BD044603689E69C6F3D1
:103AC00000469A69120C02F0FE059A68C2F30902D8
:103AD000DF6807F0FE07C168022921D185EAD21507
:103AE00015F0060F10D1816C01318164816C0229BF
:103AF000E1D1002181640820D86184F8401031466A
:103B00002046FFF7CAFFD6E70421FFF7CFFB0023CB
:103B100084F840303A4631462046FFF7BEFFCAE7F8
:103B20000421FFF7C3FB002384F840302A463146C6
:103B30002046FFF7B2FFBEE77047000010B504460D
:103B4000164BC36200230363202280F8412080F8D3
:103B50004230436311F0040F11D003685A6A436A7C
:103B6000591C41621A70038D4BB1013B0385438D93
:103B7000013B9BB24385436C43F00403436407213C
:103B80002046FFF793FB23681022DA61002384F8B4
:103B900040302046FFF7D0FF10BD00BF0000FFFF00
:103BA000704770477047000010B50446002380F846
:103BB00042303A4AC2624385436C1943416490F8EB
:103BC0004130DBB2282B09D090F84130DBB2292BF1
:103BD00004D090F84130DBB22A2B1FD103212046BC
:103BE000FFF764FB282384F84130002323632C4B28
:103BF000636323681A6812F4804F1ED11A6812F4A6
:103C0000004F2DD194F84130DBB2602B3BD0002324
:103C100084F840302046FDF7A1FF10BD0721FFF7D3
:103C200045FB94F84130DBB2602B02D0202384F8AE
:103C30004130002323636363DBE71A6822F4804288
:103C40001A60A36B174A5A63002384F84030A06BB4
:103C5000FFF763F90028E0D0A06B436B9847DCE7DF
:103C60001A6822F400421A60E36B0E4A5A6300237A
:103C700084F84030E06BFFF750F90028CDD0E06BBE
:103C8000436B9847C9E7202384F84130002384F828
:103C900040302046FFF786FFBFE700BF0000FFFF70
:103CA000CD3D00084B43000838B504460D46036877
:103CB0002022DA6103680822DA610721FFF7F6FAA9
:103CC0002268536843F4004353602268536823F02A
:103CD000FF7323F48B3323F4FF7323F0010353604A
:103CE0002046FFF775FA2268136813F4804F03D15A
:103CF000136813F4004F09D094F84130DBB2212B44
:103D000039D0E36B1B685B689BB26385638D9BB2A4
:103D10001BB1636C43F00403636415F0040F10D00F
:103D2000526A636A591C61621A70238D4BB1013B60
:103D30002385638D013B9BB26385636C43F0040371
:103D400063640023236384F842306363636CBBB90C
:103D5000E36A13F5803F21D194F84130DBB2222B86
:103D600028D0202384F84130002384F840302046B6
:103D7000FFF763FE1DE0A36B1B685B689BB2C4E7A3
:103D8000616C2046FFF710FF94F84130DBB2282B1E
:103D90000FD129462046FFF7D1FE0AE00A4BE36225
:103DA000202384F84130002384F840302046FFF778
:103DB000C3FE38BD202384F84130002384F840300E
:103DC0002046FFF73BFEF4E70000FFFF90F840308D
:103DD000012B00F09E8070B516460D460446012367
:103DE00080F8403011F0100F3FD012F0100F3CD08F
:103DF000438D9BB243BBC36AB3F1007F03D0C36A58
:103E0000B3F1007F04D194F84130DBB2282B0CD001
:103E1000E36A13F5803F04D094F84130DBB2292BDC
:103E200008D023681022DA6115E029462046FFF702
:103E300085FE10E023681022DA612046FFF7C8F9FA
:103E40002046FFF7FCFD06E003681022DA61436CB0
:103E500043F00403436415F0200F02D016F0200F46
:103E600052D1002084F8400070BD15F0040F1ED020
:103E700016F0040F1BD0638D9BB263B123685A6A9E
:103E8000636A591C61621A70238D013B2385638D1F
:103E9000013B9BB26385638D9BB2002BDBD1E36A50
:103EA00013F5803FD7D02046FFF7C9FDD3E715F0C3
:103EB000080F02D016F0080F16D115F0020FCAD065
:103EC00016F0020FC7D0638D9BB293B1636A5A1C80
:103ED000626222681B789362638D013B9BB26385AB
:103EE000238D013B2385B6E729462046FFF7D6FD03
:103EF000B1E7E36AB3F1807F02D0E36A002BAAD175
:103F00002046FFF79CFDA6E729462046FFF7CCFE9A
:103F1000A7E70220704790F84030012B41D010B540
:103F20000446012380F8403011F0100F21D012F028
:103F3000100F1ED090F84130DBB2212B0AD0C36B9A
:103F40001B685B68B3FA83F35B0953B123681022E3
:103F5000DA611EE0836B1B685B68B3FA83F35B096D
:103F6000F3E723681022DA61636C43F004036364AF
:103F70000FE011F0080F06D012F0080F03D02368ED
:103F80000822DA6105E011F0200F02D012F0200FB4
:103F900003D1002084F8400010BD2046FFF784FEC6
:103FA000F7E70220704710B5044603682022DA6163
:103FB0000268536823F0FF7323F48B3323F4FF73F9
:103FC00023F001035360002303634363A3F58033AD
:103FD000C36211F0100F06D003681022DA61436C3F
:103FE00043F0040343642046FFF7F2F80321204620
:103FF000FFF75CF9636CFBB994F84130DBB2602BDE
:104000001AD094F84130DBB2212B1AD094F8413009
:10401000DBB2222B14D1202384F8413094F84230B3
:10402000DBB2402B27D0002384F8423084F84030A4
:104030002046FDF737FB03E0616C2046FFF7B4FD37
:1040400010BD202384F8413094F84230DBB2402B7D
:1040500008D0002384F8423084F840302046FDF731
:104060001FFBEDE7002384F8423084F840302046FF
:10407000FFF796FDE4E7002384F8423084F84030EF
:104080002046FFF78EFDDBE790F84030012B00F073
:10409000B38070B582B016460D460446012380F801
:1040A000403011F0100F02D012F0100F1ED115F099
:1040B000040F25D016F0040F22D023685A6A636AD1
:1040C000591C61621A70238D013B2385638D013B6E
:1040D0009BB2638515F0200F03D016F0200F40F03F
:1040E0008680002084F8400002B070BD0368102272
:1040F000DA61436C43F004034364FFF769F8E9E7CE
:1041000015F0020F10D016F0020F0DD0636A5A1C82
:10411000626222681B789362238D013B2385638D45
:10412000013B9BB26385D5E715F0800F3FD016F0B9
:10413000400F3CD0238D63BB638D9BB24BB3236890
:104140005968C1F30901638D9BB2FF2B0ED8628DB4
:1041500092B22285E36A13F5803F11D0E36A002012
:104160000090D2B22046FFF744F8B3E7FF22228541
:10417000002300934FF080732046FFF73AF8A9E739
:10418000002300934FF00073D2B22046FFF731F8BE
:10419000A0E723685B6813F0007F03D12046FFF798
:1041A00022FC97E740212046FFF7FEFC92E715F03E
:1041B000400F8FD016F0400F8CD0638D9BB28BB91F
:1041C00023685A6812F0007F84D1E26A12F5803FBA
:1041D00004D15A6842F480425A607BE72046FFF7D8
:1041E00002FC77E740212046FFF7DEFC72E7294614
:1041F0002046FFF7D8FE74E70220704790F8403061
:10420000012B6AD010B582B00446012380F84030FB
:1042100011F0100F02D012F0100F31D111F0800FF9
:104220004CD012F0400F49D02268136823F04003AD
:104230001360638D9BB2002B3BD023685968C1F398
:104240000901638D9BB2FF2B28D9FF2323854FF0F3
:10425000807394F82820002000902046FEF7C9FFC4
:10426000638D228D9B1A9BB2638594F84130DBB23B
:10427000222B18D02268136843F48043136023E094
:1042800003681022DA61436C43F004034364122193
:10429000FEF7CAFF2046FEF79BFF15E0638D2385DE
:1042A0004FF00073D5E72268136843F400431360AE
:1042B0000AE040212046FFF777FC05E011F0200FCF
:1042C00002D012F0200F04D1002084F8400002B088
:1042D00010BD2046FFF767FEF6E70220704710B5D5
:1042E00002689369116813F4807F09D011F0800F80
:1042F00006D0446C44F0010444644FF48074D461EB
:1043000013F4806F0AD011F0800F07D0426C42F096
:104310000802426402684FF48064D46113F4007FA1
:104320000AD011F0800F07D0436C43F002034364BE
:1043300003684FF40072DA61436C13F00B0F00D185
:1043400010BD416CFFF730FCFAE708B5406A02681F
:10435000536843F400435360826B00235363C26B82
:10436000536390F84130DBB2602B02D0FDF7F6FBCF
:1043700008BD202380F84130FFF714FCF8E790F8DF
:104380004130DBB2202B24D190F84030012B22D0D9
:10439000012380F84030242380F8413002681368FC
:1043A00023F0010313600268136823F48053136041
:1043B00002681368194311600268136843F001032F
:1043C0001360202380F84130002380F840301846E5
:1043D0007047022070470220704790F84130DBB2EE
:1043E000202B22D190F84030012B20D0012380F8DF
:1043F0004030242380F841300268136823F0010321
:1044000013600268136823F4706343EA01211160AA
:104410000268136843F001031360202380F84130E1
:10442000002380F840301846704702207047022071
:1044300070470000002860D010B582B0044690F8A4
:104440003230DBB2052B5AD090F83230DBB2022B7F
:1044500058D02E4B9A6942F001029A619B6903F091
:1044600001030193019B90F832300BB980F8313091
:104470002046FCF76FFF6368402B1ED0602B1CD0DA
:1044800021680868224A0240A0680343E0680343A9
:104490002069034360690343A0690343E069034360
:1044A000206A0343606A0343A06A43EAC043E06AA8
:1044B00043EA006313430B6017E021680868144A5D
:1044C0000240E068034320690343A0690343E069B5
:1044D0000343206A0343606A0343A06A43EAC0437C
:1044E000E06A43EA006313430B6094F832305BB92F
:1044F000012384F83230002002E0012070470120BF
:1045000002B010BD0120FBE70020F9E700100240D7
:10451000113800E0A8B190F83230DBB2052B12D090
:1045200090F83230DBB2012B01D0012070470168D6
:104530000B6843F001030B60042380F83230002045
:10454000704701207047012070470000002800F0EC
:10455000F58270B582B00446036813F0010F3BD0BA
:10456000B54B5B6803F00C03042B1ED0B24B5B68A9
:1045700003F00C03082B13D06368B3F5803F68D0B9
:10458000002B40F0928003F1804303F504331A6856
:1045900022F480321A601A6822F480221A605DE0E8
:1045A000A54B5B6813F4803FE6D04FF4003393FAD9
:1045B000A3F3A14B19684FF4003393FAA3F3B3FAB2
:1045C00083F303F01F03012202FA03F30B4203D02B
:1045D0006368002B00F0B482236813F0020F00F030
:1045E000C680954B5B6813F00C0F00F09C80924BDB
:1045F0005B6803F00C03082B00F08F802369002B0D
:1046000000F0F380012292FAA2F3B3FA83F303F1EC
:10461000845303F584139B001A60FDF763FB054682
:10462000022393FAA3F3844B1968022393FAA3F3AA
:10463000B3FA83F303F01F03012202FA03F30B42E0
:1046400040F0C480FDF74EFB401B0228E8D9032050
:1046500083E2794A136843F480331360764AD36A5D
:1046600023F00F03A1680B43D3626368002B36D09D
:10467000FDF738FB05464FF4003393FAA3F36E4B76
:1046800019684FF4003393FAA3F3B3FA83F303F0FA
:104690001F03012202FA03F30B429DD1FDF722FB17
:1046A000401B6428E7D9032057E2B3F5A02F09D0B7
:1046B000614B1A6822F480321A601A6822F4802250
:1046C0001A60CBE703F18043A3F53C331A6842F448
:1046D00080221A601A6842F480321A60BEE7FDF741
:1046E00001FB05464FF4003393FAA3F3524B1968CC
:1046F0004FF4003393FAA3F3B3FA83F303F01F03E9
:10470000012202FA03F30B423FF466AFFDF7EAFA27
:10471000401B6428E6D903201FE2474B5B6813F473
:10472000803F7FF46BAF022393FAA3F3424B1968E7
:10473000022393FAA3F3B3FA83F303F01F030122D6
:1047400002FA03F30B4204D02369934201D0012003
:1047500003E23948036823F0F8036169F82292FA0A
:10476000A2F2B2FA82F201FA02F213430360236862
:1047700013F0080F00F08C80A369002B60D001219A
:1047800091FAA1F2B2FA82F22C4B13449B00196009
:10479000FDF7A8FA0546022393FAA3F293FAA3F2CF
:1047A00093FAA3F2244A516A93FAA3F3B3FA83F378
:1047B00003F01F03012202FA03F30B4268D1FDF755
:1047C00091FA401B0228E6D90320C6E11A48036883
:1047D00023F0F8036169F82292FAA2F2B2FA82F2A7
:1047E00001FA02F213430360C1E7012393FAA3F332
:1047F000B3FA83F303F1845303F584139B0000227F
:104800001A60FDF76FFA0546022393FAA3F30A4BE9
:104810001968022393FAA3F3B3FA83F303F01F0397
:10482000012202FA03F30B42A1D0FDF75BFA401B11
:104830000228E9D9032090E1001002402081901065
:10484000012292FAA2F2B2FA82F2C04B13449B0008
:1048500000221A60FDF746FA0546022393FAA3F2F6
:1048600093FAA3F293FAA3F2B94A516A93FAA3F323
:10487000B3FA83F303F01F03012202FA03F30B429E
:1048800006D0FDF72FFA401B0228E6D9032064E189
:10489000236813F0040F00F0B380AD4BDB6913F015
:1048A000805F20D1AA4BDA6942F08052DA61DB697D
:1048B00003F080530193019B0125A64B1B6813F461
:1048C000807F12D0E368012B23D073BB03F18043B8
:1048D00003F504331A6A22F001021A621A6A22F0FE
:1048E00004021A621AE00025E7E79A4A136843F4C3
:1048F00080731360FDF7F6F90646964B1B6813F4B8
:10490000807FDFD1FDF7EEF9801B6428F5D9032005
:1049100023E18F4A136A43F001031362E368002B1B
:1049200041D0FDF7DFF906462BE0052B09D0884B77
:104930001A6A22F001021A621A6A22F004021A624A
:10494000ECE7834B1A6A42F004021A621A6A42F0D8
:1049500001021A62E2E77E4B196A022393FAA3F37B
:10496000B3FA83F303F01F03012202FA03F319429F
:1049700045D1FDF7B7F9801B41F28833984200F228
:10498000E180022393FAA3F293FAA3F3B3FA83F339
:104990005B0943F00203022BDDD0022393FAA3F359
:1049A0006B4B596AD9E7FDF79DF9064615E0684B50
:1049B000196A022393FAA3F3B3FA83F303F01F03F4
:1049C000012202FA03F3194219D0FDF78BF9801B7B
:1049D00041F28833984200F2B780022393FAA3F29F
:1049E00093FAA3F3B3FA83F35B0943F00203022BB8
:1049F000DDD0022393FAA3F3554B596AD9E7B5BB2F
:104A0000E369002B00F0A880514A526802F00C02C2
:104A1000082A00F0A480022B2FD04FF0807393FA65
:104A2000A3F3B3FA83F303F1845303F584139B00D8
:104A300000221A60FDF756F904464FF0007393FA0E
:104A4000A3F3434B19684FF0007393FAA3F3B3FA3F
:104A500083F303F01F03012202FA03F319426BD020
:104A6000FDF740F9001B0228E7D9032075E0384A1A
:104A7000D36923F08053D361C2E74FF0807393FA78
:104A8000A3F3B3FA83F303F1845303F584139B0078
:104A900000221A60FDF726F905464FF0007393FADD
:104AA000A3F32B4B19684FF0007393FAA3F3B3FAF7
:104AB00083F303F01F03012202FA03F3194206D025
:104AC000FDF710F9401B0228E7D9032045E02049F3
:104AD0004B6823F47413626A206A024313434B60E9
:104AE0004FF0807393FAA3F3B3FA83F303F1845383
:104AF00003F584139B0001221A60FDF7F3F80446C6
:104B00004FF0007393FAA3F3114B19684FF0007341
:104B100093FAA3F3B3FA83F303F01F03012202FA1B
:104B200003F3194206D1FDF7DDF8001B0228E7D98F
:104B3000032012E0002010E000200EE0012070476A
:104B400001200AE0032008E0032006E02081901005
:104B50000010024000700040002002B070BD012033
:104B6000FBE700BF10B4174B5C6804F00C03082B84
:104B700026D104F470124FF4701393FAA3F3B3FA2E
:104B800083F322FA03F31049C85C0E4BDB6A03F08F
:104B90000F030F2292FAA2F2B2FA82F2D3400B4430
:104BA0001A7C14F4803F05D1084B03FB00F05DF83C
:104BB000044B7047064BB3FBF2F300FB03F0F6E740
:104BC0000348F4E700100240F886000800093D00A1
:104BD00000127A00002800F0C08070B50446614BD6
:104BE0001B6803F007038B420CD25E4A136823F064
:104BF00007030B431360136803F007038B4201D0D4
:104C0000012070BD236813F0020F06D0564A536886
:104C100023F0F003A068034353600D46236813F0AC
:104C2000010F5AD06368012B2DD0022B40D00222F5
:104C300092FAA2F24C4A1068022292FAA2F2B2FA56
:104C400082F202F01F02012101FA02F2104200F08A
:104C5000868045494A6822F0030213434B60FDF702
:104C600041F80646404B5B6803F00C036268B3EB07
:104C7000820F32D0FDF736F8801B41F2883398421C
:104C8000F0D90320BDE74FF4003292FAA2F2364A7F
:104C900010684FF4003292FAA2F2B2FA82F202F0F5
:104CA0001F02012101FA02F20242D2D10120A8E73B
:104CB0004FF0007292FAA2F22B4A10684FF0007285
:104CC00092FAA2F2B2FA82F202F01F02012101FA74
:104CD00002F21042BDD1012093E7224B1B6803F082
:104CE0000703AB420CD91F4A136823F007032B4379
:104CF0001360136803F00703AB4201D0012080E783
:104D0000236813F0040F06D0174A536823F4E063B6
:104D1000E1680B435360236813F0080F07D0124A71
:104D2000536823F46053216943EAC1035360FFF7DA
:104D300019FF0D4B5B6803F0F003F02292FAA2F228
:104D4000B2FA82F2D340094AD35CD840084B1860CB
:104D50000020FCF785FF002053E701207047012069
:104D60004FE700BF0020024000100240E08600082C
:104D700004000020014B1868704700BF04000020A9
:104D800008B5FFF7F7FF074B5B6803F4E0634FF4E8
:104D9000E06292FAA2F2B2FA82F2D340024AD35C03
:104DA000D84008BD00100240F086000808B5FFF7A3
:104DB000E1FF074B5B6803F460534FF4605292FAD3
:104DC000A2F2B2FA82F2D340024AD35CD84008BDC4
:104DD00000100240F0860008F0B583B00446036876
:104DE00013F4803F44D0644BDB6913F0805F79D1CA
:104DF000614BDA6942F08052DA61DB6903F080537B
:104E00000193019B01255D4B1B6813F4807F6BD0E0
:104E1000594B1B6A13F4407321D0626802F440724C
:104E20009A421CD05448016A21F440764FF48033F2
:104E300093FAA3F2B2FA82F2514F3A4492004FF041
:104E4000010CC2F800C093FAA3F3B3FA83F33B4416
:104E50009B0000221A60066211F0010F58D1464AE9
:104E6000136A23F4407361680B431362002D7AD1F7
:104E7000236813F0010F06D03F4A136B23F003039E
:104E8000A1680B431363236813F0200F06D03A4A3E
:104E9000136B23F01003E1680B431363236813F0D3
:104EA000800F06D0344AD36A23F4F87321690B4388
:104EB000D362236813F4805F06D02F4A136B23F468
:104EC000807361690B431363236813F4804F51D0DF
:104ED000294A136B23F48053A1690B431363002009
:104EE00003B0F0BD00258EE7244A136843F48073B5
:104EF0001360FCF7F7FE0646204B1B6813F4807F17
:104F000086D1FCF7EFFE801B6428F5D90320E7E784
:104F1000FCF7E8FE064614E0174B196A022393FAE1
:104F2000A3F3B3FA83F303F01F03012202FA03F39E
:104F30000B4294D1FCF7D6FE801B41F28833984295
:104F400016D8022393FAA3F293FAA3F3B3FA83F3E6
:104F50005B0943F00203022BDED0022393FAA3F392
:104F6000054B596ADAE7D36923F08053D3617FE7B1
:104F70000320B5E70020B3E70010024000700040B6
:104F80000081901010B4036A046A24F001040462E2
:104F9000846924F0F00444EA021223F00A030B436C
:104FA000826103625DF8044B704710B4036A23F01A
:104FB000100303628469036A24F4704444EA0232F1
:104FC00023F0A00343EA0113826103625DF8044BFE
:104FD0007047836823F0700341F007011943816033
:104FE00070470268D36843F00103D3600268136816
:104FF00043F001031360002070470268D36823F078
:105000000103D3600368196A41F21112114208D1F9
:10501000196A40F24442114203D11A6822F0010297
:105020001A6000207047704770477047704710B58E
:10503000044603681A6912F0020F11D0DA6812F000
:10504000020F0DD06FF002021A610123037703688B
:105050009B6913F0030F79D0FFF7E6FF0023237756
:1050600023681A6912F0040F12D0DA6812F0040FE4
:105070000ED06FF004021A610223237723689B6924
:1050800013F4407F68D02046FFF7CEFF002323773C
:1050900023681A6912F0080F12D0DA6812F0080FAC
:1050A0000ED06FF008021A61042323772368DB69AE
:1050B00013F0030F57D02046FFF7B6FF00232377E6
:1050C00023681A6912F0100F12D0DA6812F0100F6C
:1050D0000ED06FF010021A61082323772368DB6972
:1050E00013F4407F46D02046FFF79EFF002323772E
:1050F00023681A6912F0010F03D0DA6812F0010F69
:105100003FD123681A6912F0800F03D0DA6812F0D9
:10511000800F3DD123681A6912F4807F03D0DA68CA
:1051200012F0800F3BD123681A6912F0400F03D0B0
:10513000DA6812F0400F39D123681A6912F0200F93
:1051400003D0DA6812F0200F37D110BDFFF76BFFE4
:105150002046FFF76AFF81E72046FFF764FF2046FD
:10516000FFF763FF92E72046FFF75DFF2046FFF75A
:105170005CFFA3E72046FFF756FF2046FFF755FFE9
:10518000B4E76FF001021A612046FCF721FBB8E793
:105190006FF080021A61204600F039F9BAE76FF427
:1051A00080721A61204600F033F9BCE76FF04002CC
:1051B0001A612046FFF73AFFBEE76FF020021A613E
:1051C000204600F023F9C0E70368224A904206D047
:1051D000B0F1804F03D0A2F59432904203D123F076
:1051E00070034A6813431B4A904212D0B0F1804FBB
:1051F0000FD0A2F5943290420BD002F59E3290422D
:1052000007D002F58062904203D002F5806290429E
:1052100003D123F44073CA68134323F080034A691F
:10522000134303608B68C3620B688362094B984227
:105230000BD003F5A053984207D003F58063984242
:1052400003D003F58063984201D10B690363012306
:1052500043617047002C0140A8B110B5044690F896
:105260003D305BB1022384F83D30211D2068FFF7FB
:10527000ABFF012384F83D30002010BD80F83C30A6
:10528000FCF7A4F8EEE70120704710B4846824F41A
:105290007F4442EA03230B43234383605DF8044BBE
:1052A0007047000090F83C30012B00F0828010B570
:1052B0000446012380F83C30022380F83D30026828
:1052C00090683D4B034093600B68402B5DD010D934
:1052D000702B40D01FD8502B4DD0602B34D1CA68D2
:1052E00049682068FFF761FE60212068FFF771FEC2
:1052F0002AE0102B53D008D9202B55D0302B23D1A6
:1053000030212068FFF765FE1EE0EBB90021206820
:10531000FFF75FFE18E0B3F5805F0ED0B3F5005FD6
:1053200012D1CB684A6889682068FFF7AEFF22680F
:10533000936843F48043936006E02268936823F403
:10534000803323F007039360012384F83D3000206D
:1053500084F83C0010BDCB684A6889682068FFF774
:1053600094FF2268936823F4803323F0770343F09B
:1053700077039360E8E7CA6849682068FFF702FE90
:1053800050212068FFF725FEDEE7CA6849682068DB
:10539000FFF7F8FD40212068FFF71BFED4E710213E
:1053A0002068FFF716FECFE720212068FFF711FEE7
:1053B000CAE70220704700BF8800FEFF90F83C302B
:1053C000012B1FD030B4012380F83C3002685368B1
:1053D00095680D4CA24210D023F070030C68234353
:1053E00025F0800489682143536003689960002395
:1053F00080F83C30184630BC704723F470034C688A
:105400002343E9E702207047002C014070477047B2
:1054100070470268136823F49073136002689368FE
:1054200023F001039360202380F86A30704790F8DE
:105430006930DBB2202B18D1C9B1D2B190F86830F5
:10544000012B18D0C164A0F85020A0F852200023EE
:10545000C366212280F8692080F8683001680A68F4
:1054600042F080020A60184670470220704701200F
:105470007047012070470220704790F86A30DBB215
:10548000202B49D1002949D0002A49D090F8683012
:10549000012B47D0012380F868304165A0F85820DF
:1054A000A0F85A208368B3F5805F06D0A3B90369DA
:1054B00073B9FF23A0F85C3011E0036923B940F20F
:1054C000FF13A0F85C300AE0FF23A0F85C3006E090
:1054D0007F23A0F85C3002E0B3F1805F12D000239C
:1054E000C366222280F86A2080F8683001688A68E2
:1054F00042F001028A6001680A6842F490720A6010
:105500001846704703691BB97F23A0F85C30E6E7B3
:105510003F23A0F85C30E2E702207047012070478B
:10552000012070470220704708B5406A0023A0F8A8
:105530005A30A0F85230FCF72FFB08BD90F86930C4
:1055400090F86A0018437047C06E704710B5044663
:1055500083680269134342691343C26913430168B4
:105560000868654A024013430B602268536823F4BD
:105570004053E1680B435360A369226A1A432168D0
:105580008B6823F4306313438B6023685B4A934238
:1055900015D05B4A934229D002F58062934221D014
:1055A0001022E169B1F5004F22D0082A00F2A28052
:1055B000DFE802F066727EA08AA0A0A0960002F545
:1055C0005842126B02F00302032A09D8DFE802F006
:1055D0000204060C0022E4E70422E2E70822E0E7E6
:1055E0001022DEE70022DCE70222DAE70022D8E719
:1055F000082A42D8DFE802F0051722412D41414137
:105600003800FFF7BDFB6268530803EB4003B3FBB0
:10561000F2F39BB2002023F00F02C3F342031343C3
:105620002268D36010BDFFF7C1FB6268530803EB2B
:105630004003B3FBF2F39BB20020ECE7626853082F
:1056400003F5740303F51053B3FBF2F39BB2002090
:10565000E1E7FFF787FA6268530803EB4003B3FB07
:10566000F2F39BB20020D6E76268530803F580335B
:10567000B3FBF2F39BB20020CDE701200023CAE781
:10568000FFF77EFB636800EB5300B0FBF3F0236889
:1056900080B2D8600020C5E7FFF788FB636800EBA5
:1056A0005300B0FBF3F0236880B2D8600020B9E764
:1056B00061684A0802F5F40202F59052B2FBF1F279
:1056C00092B2DA600020ADE7FFF74CFA636800EBB6
:1056D0005300B0FBF3F0236880B2D8600020A1E74C
:1056E00061684A0802F50042B2FBF1F292B2DA6058
:1056F000002097E7012095E7F369FFEF00380140AC
:1057000000440040436A13F0010F06D0026853685A
:1057100023F40033816A0B435360436A13F0020F92
:1057200006D00268536823F48033C16A0B43536088
:10573000436A13F0040F06D00268536823F48023F1
:10574000016B0B435360436A13F0080F06D00268E5
:10575000536823F40043416B0B435360436A13F0D7
:10576000100F06D00268936823F48053816B0B43BB
:105770009360436A13F0200F06D00268936823F405
:105780000053C16B0B439360436A13F0400F0AD080
:105790000268536823F48013016C0B435360036C5D
:1057A000B3F5801F0BD0436A13F0800F06D0026858
:1057B000536823F40023816C0B43536070470268E5
:1057C000536823F4C003416C0B435360EBE72DE9AE
:1057D000F04105460F4616469846069C2B68DB6945
:1057E00037EA03030CBF01230023B3421DD1B4F1F8
:1057F000FF3FF3D02CB1FCF775FAA0EB0800A042F4
:10580000ECD92A68136823F4D07313602A6893686C
:1058100023F001039360202385F8693085F86A300E
:10582000002385F86830032000E00020BDE8F08107
:105830002DE9F04182B01E4690F86930DBB2202B92
:105840004ED104460D46904600294ED0002A4ED037
:1058500090F86830012B4CD0012380F86830002389
:10586000C366212380F86930FCF73CFA0746A4F8A8
:105870005080A4F8528003E023682A781A85013505
:10588000B4F852309BB2DBB1B4F85230013B9BB25A
:10589000A4F8523000963B46002280212046FFF7B4
:1058A00096FF40BBA368B3F5805FE5D12369002B69
:1058B000E2D1226835F8023BC3F308031385DFE722
:1058C00000963B46002240212046FFF780FF03461A
:1058D00098B9202284F86920002284F8682000E02A
:1058E0000223184602B0BDE8F0810123F9E7012345
:1058F000F7E70223F5E70323F3E70323F1E730B5E6
:1059000083B004460023C366FCF7ECF90546236820
:105910001B6813F0080F0ED123681B6813F0040FE7
:1059200017D1202384F8693084F86A30002084F885
:10593000680003B030BD6FF07E4300930346002241
:105940004FF400112046FFF742FF0028E4D0032067
:10595000EFE76FF07E4300932B4600224FF4800167
:105960002046FFF734FF0028DBD00320E1E778B3BF
:1059700010B5044690F869300BB3242384F86930DD
:105980002268136823F0010313602046FFF7DEFD51
:10599000012813D0636ABBB92268536823F490438B
:1059A00053602268936823F02A0393602268136887
:1059B00043F0010313602046FFF7A1FF10BD80F8FC
:1059C0006830FBF723FDD8E72046FFF79BFEE3E7AF
:1059D0000120704790F86930DBB2212B2ED1B0F84E
:1059E00052309BB28BB18368B3F5805F19D0C36C22
:1059F0005A1CC26402681B781385B0F85230013B10
:105A00009BB2A0F85230002070470268136823F060
:105A1000800313600268136843F0400313600020A2
:105A200070470369002BE2D1C36C02681B88C3F383
:105A300008031385C36C0233C364DEE7022070479A
:105A400008B501680B6823F040030B60202380F841
:105A50006930FBF71FFE002008BDB0F85C2090F80D
:105A60006A30DBB2222B31D110B503689B8C9BB21C
:105A70008168B1F5805F0ED0D2B2416D4C1C446597
:105A80001A400A70B0F85A30013B9BB2A0F85A3065
:105A90005BB1002010BD01690029EDD1416D1A40B4
:105AA0000A80436D02334365ECE70268136823F410
:105AB000907313600268936823F0010393602023BE
:105AC00080F86A30FCF712F80020E3E70268936977
:105AD00043F00803936102207047000038B5044684
